:100000000C945C000C9479000C9479000C947900A9
:100010000C9479000C9479000C9479000C9479007C
:100020000C9479000C9479000C9479000C9479006C
:100030000C9479000C9479000C9479000C9479005C
:100040000C940C010C9479000C9479000C947900B8
:100050000C9479000C9479000C9479000C9479003C
:100060000C9479000C947900000000080002010053
:100070000003040700000000000000000000000072
:10008000250028002B0000000000240027002A0083
:10009000040404040404040402020202020203032E
:1000A0000303030301020408102040800102040836
:1000B000102001020408102011241FBECFEFD8E049
:1000C000DEBFCDBF11E0A0E0B1E0E8EBF4E002C09C
:1000D00005900D92A231B107D9F721E0A2E1B1E07C
:1000E00001C01D92A732B207E1F70E9456010C949D
:1000F0005A020C94000090E0FC01EC55FF4F249153
:10010000FC01E057FF4F8491882399F090E0880F1D
:10011000991FFC01EA57FF4FA591B491FC01E458E7
:10012000FF4F859194918FB7F894EC91E22BEC936B
:100130008FBF089590E0FC01E859FF4F2491FC0126
:10014000EC55FF4F3491FC01E057FF4FE491EE2353
:1001500009F43CC0222339F1233091F038F42130E6
:10016000A9F0223001F584B58F7D12C0273091F0BF
:100170002830A1F02430B9F4809180008F7D03C035
:10018000809180008F77809380000DC084B58F7739
:1001900084BD09C08091B0008F7703C08091B0000A
:1001A0008F7D8093B000F0E0EE0FFF1FE458FF4F0B
:1001B000A591B4919FB7F894611104C08C913095CA
:1001C000382302C0EC913E2B3C939FBF08953FB76C
:1001D000F8948091170190911801A0911901B091A4
:1001E0001A0126B5A89B05C02F3F19F00196A11D45
:1001F000B11D3FBFBA2FA92F982F8827820F911DBD
:10020000A11DB11DBC01CD0142E0660F771F881F03
:10021000991F4A95D1F708951F920F920FB60F922A
:1002200011242F933F938F939F93AF93BF9380910C
:10023000130190911401A0911501B0911601309114
:10024000120123E0230F2D3720F40196A11DB11DCB
:1002500005C026E8230F0296A11DB11D20931201AF
:100260008093130190931401A0931501B09316018C
:100270008091170190911801A0911901B0911A0174
:100280000196A11DB11D8093170190931801A093B1
:100290001901B0931A01BF91AF919F918F913F9136
:1002A0002F910F900FBE0F901F901895789484B5E2
:1002B000826084BD84B5816084BD85B5826085BD62
:1002C00085B5816085BD80916E00816080936E00F0
:1002D00010928100809181008260809381008091E2
:1002E0008100816080938100809180008160809393
:1002F00080008091B10084608093B1008091B00053
:1003000081608093B00080917A00846080937A004D
:1003100080917A00826080937A0080917A00816077
:1003200080937A0080917A00806880937A0010929E
:10033000C1008CE00E947B0088E00E947B0089E085
:100340000E947B0087E00E947B0086E00E947B0089
:1003500085E00E947B0084E00E947B0084E090E0C6
:1003600090931C0180931B0188E090E090931E0104
:1003700080931D0186E090E09093200180931F01FF
:1003800089E090E0909322018093210120E0C22E29
:1003900020E0D22E80912501909126010196909324
:1003A00026018093250160E087E00E949A0060E0CA
:1003B00086E00E949A0060E085E00E949A0060E07A
:1003C00084E00E949A00C0912301D09124017E0113
:1003D000EE0CFF1CF701E55EFE4F0190F081E02D71
:1003E000E050FF4F008160E08CE00E949A00009591
:1003F000A12CB12C10E0B8010A2C02C075956795AC
:100400000A94E2F7617089E00E949A0061E088E056
:100410000E949A0060E088E00E949A002FEFA21AE2
:10042000B20A88E0A816B10431F761E08CE00E94BE
:100430009A00F701E65FFE4F61E080810E949A001A
:100440002196C430D1052CF4D0932401C09323010C
:1004500004C010922401109223010E94E7002B0196
:100460003C0184E0882E912CA12CB12C0E94E70045
:10047000DC01CB0184199509A609B709883E934090
:10048000A105B10598F321E0821A9108A108B108ED
:1004900088EE480E83E0581E611C711C8114910483
:1004A000A104B10419F7C114D10409F473CF0E9457
:0804B000000070CFF894FFCFAB
:1004B8007B1267371E3D7D137F3F0700060005004E
:0204C80004002E
:00000001FF
